:020000040800F2
:100000000004002001010008510100084D01000812
:100010004F01000849010008930200080000000099
:100020000000000000000000000000005501000872
:100030004B01000800000000530100080D020008F9
:100040001B0100081B0100081B0100081B01000820
:100050001B0100081B0100081B0100081B01000810
:100060001B0100081B0100081B0100081B01000800
:100070001B0100081B0100081B0100081B010008F0
:100080001B0100081B0100081B0100081B010008E0
:100090001B0100081B0100081B0100081B010008D0
:1000A0001B0100081B0100081B0100081B010008C0
:1000B000610200081B0100081B0100081B01000869
:1000C0001B0100081B0100081B0100081B010008A0
:1000D0001B0100081B0100081B0100081B01000890
:1000E0001B0100081B0100081B010008DFF80CD0F1
:1000F00000F018F800480047B30200080004002090
:100100000648804706480047FEE7FEE7FEE7FEE7B1
:10011000FEE7FEE7FEE7FEE7FEE7FEE71102000866
:10012000ED000008064C074D06E0E06840F00103D2
:1001300094E8070098471034AC42F6D3FFF7DAFF93
:10014000B4020008C4020008FEE77047FEE7FEE7BD
:1001500070477047704700F001B800000CB50022EE
:10016000019200922748016841F4803101604FF408
:10017000A063016801F4003100910199491C0191CB
:10018000009911B901999942F3D10168890302D507
:100190000121009100E000920099012930D11A4913
:1001A0000A6842F010020A600A6822F007020A6038
:1001B0000A6842F002020A60416841604168416099
:1001C000416841F480614160416821F47C114160E3
:1001D000416841F4E8114160016841F080710160BB
:1001E00001688901FCD5416821F003014160416843
:1001F00041F0020141604168C1F381010229FAD155
:100200000CBD0000001002400020024070470000BA
:1002100010B50F48016841F00101016041680D4AC5
:100220001140416001680C4A11400160016821F4ED
:1002300080210160416821F4FE0141604FF41F01FB
:100240008160FFF788FF05494FF00060086010BD2E
:10025000001002400000FFF8FFFFF6FE08ED00E08E
:1002600010B501218C07204600F00CF8012805D1BB
:100270002046BDE81040012100F001B810BDC9437F
:100280000182704702460020128A0A4200D00120F3
:100290007047FEE702E008C8121F08C1002AFAD121
:1002A00070477047002001E001C1121F002AFBD1F6
:1002B0007047FEE7C40200080000002000040000B0
:0402C000A40200088C
:0400000508000101ED
:00000001FF
