:020000040800F2
:100000000004002001010008610200082B02000822
:100010005F02000849010008A10500080000000077
:10002000000000000000000000000000390300088C
:100030004B01000800000000FF020008F103000867
:100040001B0100081B0100081B0100081B01000820
:100050001B0100081B0100081B0100081B01000810
:100060001B0100081B0100081B0100081B01000800
:100070001B0100081B0100081B0100081B010008F0
:100080001B0100081B0100081B0100081B010008E0
:100090001B0100081B0100081B0100081B010008D0
:1000A0001B0100081B0100081B0100081B010008C0
:1000B0001B0100081B0100081B0100081B010008B0
:1000C0001B0100081B0100081B0100081B010008A0
:1000D0001B0100081B0100081B0100081B01000890
:1000E0001B0100081B0100081B010008DFF80CD0F1
:1000F00000F018F800480047C1050008000400207F
:100100000648804706480047FEE7FEE7FEE7FEE7B1
:10011000FEE7FEE7FEE7FEE7FEE7FEE7F503000881
:10012000ED000008064C074D06E0E06840F00103D2
:1001300094E8070098471034AC42F6D3FFF7DAFF93
:10014000CC050008DC050008FEE7704700B5024654
:100150004FF47A7302E0184600F004F8521E501C67
:10016000F9D100BD00EBC000C1004FF0E0204161BB
:1001700000218161052101610169C903FCD50421C8
:10018000016170472DE9F0410022CC7804F00F03A3
:10019000E40601D58C7823430C784FF00F0714F058
:1001A000FF0F4FF0010C1CD005680CFA02F40E880A
:1001B0002640A64211D1960007FA06F825EA08055E
:1001C00003FA06F848EA0505CE78282E02D0482E14
:1001D00002D002E0446100E00461521C082AE4D32A
:1001E00005600A88FF2A1ED94568002202F1080628
:1001F0000CFA06F40E882640A64210D1960007FAA3
:1002000006F825EA080503FA06F848EA0505CE7857
:10021000282E00D14461CE78482E00D10461521CB2
:10022000082AE3D34560BDE8F081FEE710B500245D
:10023000204600F05FF80A20FFF788FF641CA4B294
:10024000642CF5D90024C4F1640000F053F80A20AE
:10025000FFF77CFF641CA4B2642CF4D910BDFEE748
:100260007047000030B589B00121084600F048F819
:100270000121042000F052F818208DF823000420FA
:10028000ADF8200003208DF8220008A91848FFF7D8
:1002900079FF4FF08045284600F0E0F80024ADF8E3
:1002A0001A40ADF816406321ADF8181040F2CF2087
:1002B000ADF814008DF81C4005A9284600F022F97D
:1002C00001A800F013F96020ADF80400ADF80C406F
:1002D0000120ADF80600ADF80A4001A9284600F05B
:1002E000C3F80121284600F0ADF809B030BD000088
:1002F0000008014001464FF0804000F001B970470E
:10030000054A002903D0D1690143D1617047D16901
:100310008143D1617047000000100240054A002966
:1003200003D0916901439161704791698143916163
:100330007047000000100240704700F001B8000054
:100340000CB50022019200922748016841F48031E7
:1003500001604FF4A063016801F40031009101993C
:10036000491C0191009911B901999942F3D1016891
:10037000890302D50121009100E000920099012932
:1003800030D11A490A6842F010020A600A6822F065
:1003900007020A600A6842F002020A60416841608E
:1003A00041684160416841F480614160416821F4E5
:1003B0007C114160416841F4E8114160016841F0FD
:1003C0008071016001688901FCD5416821F0030159
:1003D0004160416841F0020141604168C1F381011F
:1003E0000229FAD10CBD000000100240002002409A
:1003F0007047000010B50F48016841F0010101602D
:1004000041680D4A1140416001680C4A1140016089
:10041000016821F480210160416821F4FE014160FE
:100420004FF41F018160FFF788FF05494FF000601E
:10043000086010BD001002400000FFF8FFFFF6FE4C
:1004400008ED00E0002904D0018841F0010101809D
:100450007047018821F0010101807047018921F076
:10046000070101817047000070B5028C22F4807290
:100470000284028C8388848B24F0700424F00304AB
:100480000D88254322F400720E894FF6FF7404EAAA
:10049000062616434A8804EA02223243114EB0422D
:1004A00002D0114EB04217D122F400664A8904EA04
:1004B0000222324322F480668A8804EA022232430E
:1004C00023F4805323F400538E8904EA06161E4356
:1004D000CB8904EA0313334383808583C9888187EA
:1004E000028470BD002C01400034014000210180D5
:1004F00041808180C180018141818181C1817047BA
:100500008187704730B502881B4C1C4DA0420DD02E
:10051000A8420BD0B0F1804F08D0194B984205D0BB
:10052000184B984202D0184B984203D122F0700326
:100530004A881A43154B984206D0154B984203D06F
:1005400022F44073CA881A4302808A8882850A8806
:100550000285A0420AD0A84208D00E4A904205D097
:100560000D4A904202D00D4A904201D1097A01868B
:100570000121818230BD0000002C01400034014087
:100580000004004000080040000C00400010004043
:100590000014004000400140004401400048014078
:1005A000FEE702E008C8121F08C1002AFAD170470E
:1005B0007047002001E001C1121F002AFBD17047E3
:1005C000FFF750FEFFF732FEFCE70000DC050008F5
:0C05D0000000002000040000B20500083C
:0400000508000101ED
:00000001FF
