:020000040800F2
:100000000804002001010008430400080D04000852
:100010004104000849010008D90900080000000057
:10002000000000000000000000000000C106000801
:1000300069010008000000004D060008790700086B
:100040001B0100081B0100081B0100081B01000820
:100050001B0100081B0100081B010008A501000886
:100060001B0100081B0100081B0100081B01000800
:100070001B0100081B0100081B0100081B010008F0
:100080001B0100081B0100081B0100081B010008E0
:100090001B0100081B0100081B0100081B010008D0
:1000A0001B0100081B0100081B0100081B010008C0
:1000B0001B0100081B0100081B0100081B010008B0
:1000C0001B0100081B0100081B0100081B010008A0
:1000D0001B0100081B0100081B0100081B01000890
:1000E0001B0100081B0100081B010008DFF80CD0F1
:1000F00000F018F800480047F9090008080400203B
:100100000648804706480047FEE7FEE7FEE7FEE7B1
:10011000FEE7FEE7FEE7FEE7FEE7FEE77D070008F5
:10012000ED000008064C074D06E0E06840F00103D2
:1001300094E8070098471034AC42F6D3FFF7DAFF93
:10014000180A0008380A0008FEE700000549088878
:10015000401C80B20880052801D3401F0880088811
:100160007047000000000020704700B502464FF4C1
:100170007A7302E0184600F004F8521E501CF9D1C0
:1001800000BD00EBC000C1004FF0E0204161002144
:100190008161052101610169C903FCD50421016167
:1001A0007047000010B5022000F026F8012818D191
:1001B0000C4C0121204600F01EF901280CD0012131
:1001C000204600F021F9FFF7C1FF07494880BDE84C
:1001D0001040022000F00AB80121204600F012F978
:1001E000F1E710BD00140140000000200149086043
:1001F000704700001404014001460020054A1268BF
:100200000A40044B14331B680B4202D0002A00D072
:10021000012070470004014030B51B4A8379016812
:10022000002B2AD013688B431360111D0B680468E0
:10023000A3430B60017911440B68046823430B60EE
:10024000114C08342168036899432160231D196803
:100250000568A94319604179102905D011440A683D
:10026000006802430A6030BD2168026811432160C2
:10027000196800680143196030BD007910440268B4
:100280008A43026030BD0000000401407FB50121B7
:10029000042000F007FA0121202000F003FA0121D8
:1002A000084600F0FFF90225ADF80C5028208DF823
:1002B0000F0003208DF80E0003A9194800F048F83C
:1002C0000124ADF80C4010208DF80F00154E03A945
:1002D000304600F03DF80121304600F093F801214E
:1002E000002000F021F801958DF80A4000208DF8DB
:1002F000080008208DF8090001A8FFF78DFF4FF4D2
:10030000A06000F0D1F807208DF800008DF80340C0
:100310008DF801408DF80240684600F093F87FBDEB
:10032000000801400014014010B58A07120F0F2386
:10033000934021F00304054921448C689C438C6060
:100340008B68904003438B6010BD000000000140AB
:100350002DE9F0410022CC7804F00F03E40601D52A
:100360008C7823430C784FF00F0714F0FF0F4FF0F9
:10037000010C1CD005680CFA02F40E882640A64237
:1003800011D1960007FA06F825EA080503FA06F8DF
:1003900048EA0505CE78282E02D0482E02D002E089
:1003A000446100E00461521C082AE4D305600A8815
:1003B000FF2A1ED94568002202F108060CFA06F44D
:1003C0000E882640A64210D1960007FA06F825EAC4
:1003D000080503FA06F848EA0505CE78282E00D16C
:1003E0004461CE78482E00D10461521C082AE3D320
:1003F0004560BDE8F08102460020D2680A4200D084
:10040000012070474161704701617047FEE710B5F8
:100410000024204600F0F2F80A20FFF7A6FE641C34
:10042000A4B2642CF5D90024C4F1640000F0E6F80D
:100430000A20FFF79AFE641CA4B2642CF4D910BD04
:10044000FEE7704770B50F23C27801260178002AB5
:100450001ED0144A126802F4E062C2F5E062120A89
:10046000C2F10404D3404578A54082781A402A435B
:10047000120101F1E02181F80024007800F01F0151
:100480008E404009800000F1E020C0F8006170BD9E
:1004900001F01F0086404809800000F1E020C0F80C
:1004A000806170BD0CED00E002490843024908601C
:1004B000704700000000FA050CED00E030B589B08F
:1004C0000121042000F0EEF80121022000F0CEF816
:1004D0000121084600F0E6F84020ADF82000182081
:1004E0008DF8230003208DF8220008A91D48FFF78E
:1004F0002FFF1D4D284600F081F90024ADF81A4069
:10050000ADF8164044F61F61ADF818104720ADF85D
:1005100014008DF81C4005A9284600F00FFA01A828
:1005200000F0FEF96020ADF804000120ADF80600EF
:10053000ADF80A40ADF80C4001A9284600F064F976
:100540000821284600F0A4F90121284600F03EF9D0
:100550000121284600F046F9032000F055F809B0C3
:1005600030BD0000000801400004004030B589B0F3
:100570000121084600F06CF80121042000F084F805
:1005800018208DF823000420ADF8200003208DF8FA
:10059000220008A91848FFF7DBFE4FF080452846E7
:1005A00000F02CF90024ADF81A40ADF81640632194
:1005B000ADF8181040F2CF20ADF814008DF81C40B3
:1005C00005A9284600F0BAF901A800F0A9F96020B1
:1005D000ADF80400ADF80C400120ADF80600ADF810
:1005E0000A4001A9284600F059F90121284600F0E7
:1005F000F9F809B030BD00000008014001464FF095
:10060000804000F099B9000002460F484FF4FA719B
:10061000052A16D2DFE802F00305090D110000F0EB
:1006200089B94FF47A7100F085B940F2DC5100F0DD
:1006300081B94FF4FA6100F07DB940F6C41100F0C1
:1006400079B900F077B9000000040040704700005D
:10065000054A002903D0D1690143D1617047D169AE
:100660008143D1617047000000100240054A002913
:1006700003D0116901431161704711698143116110
:100680007047000000100240054A002903D091691C
:100690000143916170479169814391617047000006
:1006A00000100240054A002903D0D1680143D160FF
:1006B0007047D1688143D16070470000001002404C
:1006C000704700F001B800000CB5002201920092C2
:1006D0002748016841F4803101604FF4A06301684C
:1006E00001F4003100910199491C0191009911B95F
:1006F00001999942F3D10168890302D50121009142
:1007000000E000920099012930D11A490A6842F0AC
:1007100010020A600A6822F007020A600A6842F0C2
:1007200002020A604168416041684160416841F4E9
:1007300080614160416821F47C114160416841F46D
:10074000E8114160016841F0807101600168890130
:10075000FCD5416821F003014160416841F002018C
:1007600041604168C1F381010229FAD10CBD00004A
:1007700000100240002002407047000010B50F48F2
:10078000016841F00101016041680D4A114041607A
:1007900001680C4A11400160016821F48021016068
:1007A000416821F4FE0141604FF41F018160FFF7B1
:1007B00088FF05494FF00060086010BD001002403E
:1007C0000000FFF8FFFFF6FE08ED00E0002904D06E
:1007D000018841F0800101807047018821F080018B
:1007E00001807047002904D0018841F00101018097
:1007F0007047018821F0010101807047018921F0D3
:10080000070101817047000030B5028C22F001021F
:100810000284028C8388048B24F0700424F0030586
:100820000C882C4322F002020D8915434A882A4382
:10083000124DA8420BD0124DA84208D0114DA8422B
:1008400005D0114DA84202D0104DA8420FD122F080
:1008500008054A892A4322F004058A882A4323F49A
:10086000807323F400738D891D43CB892B438380D0
:100870000483C9888186028430BD0000002C0140B9
:100880000034014000400140004401400048014064
:10089000028B22F008020A430283704770B5028C73
:1008A00022F480720284028C8388848B24F070048A
:1008B00024F003040D88254322F400720E894FF6BC
:1008C000FF7404EA062616434A8804EA02223243E9
:1008D000114EB04202D0114EB04217D122F4006640
:1008E0004A8904EA0222324322F480668A8804EAB2
:1008F0000222324323F4805323F400538E8904EA06
:1009000006161E43CB8904EA031333438380858391
:10091000C9888187028470BD002C014000340140E9
:100920000021018041808180C180018141818181DC
:10093000C1817047818670478187704730B50288D2
:100940001B4C1C4DA0420DD0A8420BD0B0F1804FE3
:1009500008D0194B984205D0184B984202D0184B3A
:10096000984203D122F070034A881A43154B9842EB
:1009700006D0154B984203D022F44073CA881A431C
:1009800002808A8882850A880285A0420AD0A8420D
:1009900008D00E4A904205D00D4A904202D00D4A2E
:1009A000904201D1097A01860121818230BD000087
:1009B000002C0140003401400004004000080040C9
:1009C000000C0040001000400014004000400140B6
:1009D0000044014000480140FEE702E008C8121F41
:1009E00008C1002AFAD170477047002001E001C118
:1009F000121F002AFBD17047FFF7B8FDFFF75EFD1D
:100A0000FFF744FC034CFFF702FD2088FFF7FCFDD5
:100A1000F9E7000002000020380A0008000000206A
:100A200004000000DA0900083C0A00080400002065
:0C0A300004040000EA09000800000000B7
:0400000508000101ED
:00000001FF
