:020000040800F2
:1000000008040020010100085904000855040008F4
:1000100057040008C9020008490700080000000052
:1000200000000000000000000000000019050008AA
:10003000E902000800000000DD040008D105000806
:100040001B0100081B0100081B0100081B01000820
:100050001B0100081B0100081B0100082503000804
:100060001B0100081B0100081B0100081B01000800
:100070001B0100081B0100081B0100081B010008F0
:100080001B0100081B0100081B0100081B010008E0
:100090001B0100081B0100081B0100081B010008D0
:1000A0001B0100081B0100081B0100081B010008C0
:1000B0001B0100081B0100081B0100081B010008B0
:1000C0001B0100081B0100081B0100081B010008A0
:1000D0001B0100081B0100081B0100081B01000890
:1000E0001B0100081B0100081B010008DFF80CD0F1
:1000F00000F0D8F80048004769070008080400200D
:100100000648804706480047FEE7FEE7FEE7FEE7B1
:10011000FEE7FEE7FEE7FEE7FEE7FEE7D50500089F
:10012000ED00000880EA010210B502F00043400033
:1001300022D04A001FD0010E01EB1261C0F356001D
:10014000C2F3560240F4000042F40002A0FB022079
:1001500000047F39140400D0401C50EA124001D43E
:100160004000491EC2B20C0604EBD010401C4008EF
:10017000802A02D003E0002010BD20F001000029F9
:1001800000DA0020184310BD30B480EA010202F00A
:10019000004530F0004221F0004013D090B1C30D73
:1001A000D40DC2F31601C0F31600E41A41F40001A5
:1001B00040F400027D34914201D3641C00E0490008
:1001C000002C02DA30BC002070474FF400000023FE
:1001D000914201D3891A034340084FEA4101F7D104
:1001E00051B1914202D14FF0004105E002D24FF0EF
:1001F000010101E06FF0010103EBC450284430BC61
:1002000000F019B896230022114600F01DB820F026
:100210000040C10DC0F3160040F400007F2901DA50
:1002200000207047962903DCC1F19601C840704751
:100230009639884070470029A8BF7047401C490084
:1002400008BF20F00100704710B4B0FA80FC00FA3B
:100250000CF050EA010404BF10BC704749B1CCF166
:10026000200421FA04F411FA0CF118BF01212143F2
:100270000843A3EB0C01CB1D4FEA00614FEA1020AD
:1002800042BF002010BC704700EBC350104400294F
:10029000A4BF10BC7047401C490008BF20F00100FB
:1002A00010BC7047064C074D06E0E06840F00103C3
:1002B00094E8070098471034AC42F6D3FFF71AFFD2
:1002C000C0070008E0070008FEE7000005490888AD
:1002D000401C80B20880052801D3401F0880088890
:1002E0007047000000000020704700B502464FF440
:1002F0007A7302E0184600F004F8521E501CF9D13F
:1003000000BD00EBC000C1004FF0E02041610021C2
:100310008161052101610169C903FCD504210161E5
:100320007047000010B5022000F026F8012818D10F
:100330000C4C0121204600F082F801280CD001214C
:10034000204600F085F8FFF7C1FF07494880BDE867
:100350001040022000F00AB80121204600F076F893
:10036000F1E710BD001401400000002001490860C1
:10037000704700001404014001460020054A12683D
:100380000A40044B14331B680B4202D0002A00D0F1
:1003900001207047000401402DE9F0410022CC7893
:1003A00004F00F03E40601D58C7823430C784FF05A
:1003B0000F0714F0FF0F4FF0010C1CD005680CFA6A
:1003C00002F40E882640A64211D1960007FA06F8DC
:1003D00025EA080503FA06F848EA0505CE78282E2E
:1003E00002D0482E02D002E0446100E00461521CB9
:1003F000082AE4D305600A88FF2A1ED9456800222E
:1004000002F108060CFA06F40E882640A64210D126
:10041000960007FA06F825EA080503FA06F848EAFE
:100420000505CE78282E00D14461CE78482E00D123
:100430000461521C082AE3D34560BDE8F0810246FE
:100440000020D2680A4200D0012070474161704705
:1004500001617047FEE7FEE77047000030B589B0E4
:100460000121022000F03CF80121082000F046F8AC
:100470000220ADF8200018208DF8230003208DF80D
:10048000220008A91348FFF787FF44F61F60ADF864
:1004900018004720ADF814000024ADF81A40ADF85C
:1004A00016400D4D05A9284600F000F96021ADF871
:1004B00004100121ADF80610ADF80C40ADF80A406B
:1004C00001A9284600F0BAF80121284600F0AAF850
:1004D00009B030BD000C014000040040704700002E
:1004E000054A002903D0D1690143D1617047D16920
:1004F0008143D1617047000000100240054A002985
:1005000003D0916901439161704791698143916181
:100510007047000000100240704700F001B8000072
:100520000CB50022019200922748016841F4803105
:1005300001604FF4A063016801F40031009101995A
:10054000491C0191009911B901999942F3D10168AF
:10055000890302D50121009100E000920099012950
:1005600030D11A490A6842F010020A600A6822F083
:1005700007020A600A6842F002020A6041684160AC
:1005800041684160416841F480614160416821F403
:100590007C114160416841F4E8114160016841F01B
:1005A0008071016001688901FCD5416821F0030177
:1005B0004160416841F0020141604168C1F381013D
:1005C0000229FAD10CBD00000010024000200240B8
:1005D0007047000010B50F48016841F0010101604B
:1005E00041680D4A1140416001680C4A11400160A8
:1005F000016821F480210160416821F4FE0141601D
:100600004FF41F018160FFF788FF05494FF000603C
:10061000086010BD001002400000FFF8FFFFF6FE6A
:1006200008ED00E0002904D0018841F001010180BB
:100630007047018821F001010180704770B5028C7C
:1006400022F480520284058C8288838B23F4E04359
:1006500023F440760C884FF6FF7303EA04243443F6
:1006600025F400550E8903EA06362E434D8803EA29
:1006700005353543094EB04202D0094EB04205D18E
:1006800022F480468A8903EA82123243828084837C
:10069000C988A0F84010058470BD0000002C0140FE
:1006A00000340140A0F840107047000030B50288C7
:1006B0001B4C1C4DA0420DD0A8420BD0B0F1804F76
:1006C00008D0194B984205D0184B984202D0184BCD
:1006D000984203D122F070034A881A43154B98427E
:1006E00006D0154B984203D022F44073CA881A43AF
:1006F00002808A8882850A880285A0420AD0A842A0
:1007000008D00E4A904205D00D4A904202D00D4AC0
:10071000904201D1097A01860121818230BD000019
:10072000002C01400034014000040040000800405B
:10073000000C004000100040001400400040014048
:100740000044014000480140FEE702E008C8121FD3
:1007500008C1002AFAD170477047002001E001C1AA
:10076000121F002AFBD17047472144F61F60FFF794
:1007700075FE0024B42C00D900246420FFF7B5FDD9
:10078000204600F003F80A34E4B2F3E710B5FFF7AF
:1007900039FD0849FFF7F8FC0749FFF7C3FCFFF7ED
:1007A00036FD00F5FA7081B2BDE810400348FFF74E
:1007B00079BF0000000034430000FA440004004008
:1007C000E007000800000020040000004A070008BD
:1007D000E407000804000020040400005A07000891
:0407E0000000000015
:0400000508000101ED
:00000001FF
