:020000040800F2
:1000000060080020452A00085D2800085F280008D5
:100010008D2800088F2800089128000800000000A3
:100020000000000000000000000000001F0C00089D
:100030009328000800000000CD0B0008890D00087F
:10004000BD2A0008C12A0008C52A0008C92A0008DC
:10005000CD2A0008D12A0008D52A0008D92A00088C
:10006000DD2A0008E12A0008E52A0008E92A00083C
:10007000ED2A0008F12A0008F52A0008F92A0008EC
:10008000FD2A0008012B0008052B0008092B000899
:100090000D2B0008112B0008152B0008192B000848
:1000A0001D2B0008212B0008252B0008292B0008F8
:1000B0002D2B0008312B0008352B0008392B0008A8
:1000C0003D2B0008412B0008452B0008492B000858
:1000D0004D2B0008011D0008512B0008552B00086E
:1000E000592B00085D2B0008612B0008652B0008C8
:1000F000692B00086D2B0008712B0008752B000878
:10010000792B00087D2B0008812B0008852B000827
:10011000892B00088D2B00086B250008912B000807
:10012000952B0008992B00089D2B0008A12B000897
:100130002DE9FA4F83B0040015000E9E0F9FDDF8E5
:100140004080DDF844902000002802D100F05DFDE1
:10015000FEE7052E02D300F058FDFEE741462800D9
:1001600080B200F087FB8246BAF1000F75D0DAF852
:100170003000ADB210EB8500001F83465FEADB0B59
:100180005FEACB0B1BF00700002802D000F03DFD1A
:10019000FEE7280080B200904B463200039950469B
:1001A00000F0AAFA049A2100584600F059FDCAF856
:1001B0000000002F01D0C7F800A000F0B8FDDFF864
:1001C00000050068401CDFF8F8140860DFF804053B
:1001D000006800280BD1DFF8FC04C0F800A0DFF8AD
:1001E000E0040068012811D100F0BBFA0EE0DFF84E
:1001F000D4040068002809D1DFF8D8040068C06A78
:10020000864203D3DFF8CC04C0F800A0DFF8B804BE
:100210000068401CDFF8B0140860DFF8AC04006828
:10022000CAF84400DFF8A40400680121DAF82C20A1
:1002300091400843DFF8941408601AF10401DFF8D4
:100240009004DAF82C20142303FB020000F0D3FD05
:100250000120019000F083FD02E05FF0FF3001908B
:10026000019801280CD1DFF85C040068002807D051
:10027000DFF860040068C06AB04201D200F04EFDB1
:10028000019805B0BDE8F08F70B504000026002C81
:100290002BD0DFF8D8050068002802D000F0B5FCAC
:1002A000FEE700F057F8DFF84C040068201805005E
:1002B000DFF820040068001D00F0C6FD00280ED104
:1002C000DFF810040068DFF8041409680122C06A2E
:1002D00012FA00F031EA0000DFF8F013086028009D
:1002E00000F09EFA00F03EF80600002E01D100F06A
:1002F00015FD70BD1FB50020039000200290002066
:1003000001900020009000238022DFF864180FF293
:10031000CD30FFF70DFF0400012C15D100F075FC66
:100320005FF0FF30DFF8501808600120DFF8941309
:1003300008600020DFF8BC1308600020DFF84018D8
:10034000086000F0A7FC04E0002C02D100F05DFC86
:10035000FEE71FBDDFF814050068401CDFF80C1530
:100360000860704738B50025DFF8000500680028F0
:1003700002D100F04AFCFEE700F0D9FCDFF8EC0403
:100380000068401EDFF8E4140860DFF8E00400684D
:10039000002857D1DFF828030068002852D0DFF882
:1003A000D407006800282AD0DFF8C807C068C068F2
:1003B000040014F1180000F047FD201D00F044FD7A
:1003C000DFF8080300680121E26A91400843DFF882
:1003D000FC120860211DDFF8F802E26A142303FB17
:1003E000020000F008FDE06ADFF8E8120968C96A57
:1003F0008842D4D30120DFF894170860CFE7DFF8F4
:100400007C070068002814D0DFF870070068002817
:100410000FD000F06CF8002803D00120DFF86C1733
:100420000860DFF858070068401EDFF850170860C2
:10043000EAE7DFF858070068012803D1012005002A
:1004400000F06CFC00F08BFC280032BD2DE9F0417F
:1004500004000D00160000275FF00508FFF77AFF83
:10046000DFF85C02006885423CD3B8F10108012244
:10047000DFF85C02142101FB080114EB471000F0C7
:1004800026FAC0190700B8F1000FEED10222DFF8FA
:10049000F406016814EB471000F019FAC0190700C0
:1004A0000222DFF8E406016814EB471000F00FFAAF
:1004B000C01907000422DFF8201214EB471000F0E7
:1004C00006FAC01907000322DFF8A41314EB471043
:1004D00000F0FDF9C0190700002E03D0DFF8B406C4
:1004E00000683060FFF73EFF3800BDE8F0812DE97D
:1004F000F0410026DFF87403006800287AD1DFF8A5
:10050000F4010068401CDFF8EC110860DFF8E4013A
:100510000768002F1FD1DFF86C060068006800280C
:1005200002D000F072FBFEE7DFF858060068804654
:10053000DFF854060068DFF84C160860DFF848065C
:10054000C0F80080DFF848060068401CDFF840165D
:10055000086000F02AFADFF82006006887423CD3E2
:10056000DFF8200600680068002805D15FF0FF3042
:10057000DFF80416086030E0DFF808060068C0689D
:10058000C068040060680500AF4203D2DFF8E805E8
:10059000056022E0201D00F057FCA06A002803D06F
:1005A00014F1180000F050FC484800680121E26A8C
:1005B0009140084345490860211D4548E26A1423DB
:1005C00003FB020000F017FCE06A42490968C96AAF
:1005D0008842C5D301200600C2E73D483D4909686D
:1005E000C96A142202FB01000068022809D3012015
:1005F000060006E0DFF884050068401CDFF87C1583
:100600000860DFF888050068002801D00120060096
:100610003000BDE8F08110B5DFF850020068002816
:1006200004D00120DFF86415086048E00020DFF8FE
:100630005C150860DFF848050068DFF85C150860A5
:10064000DFF858050068DFF85015096888420BD2BA
:1006500020480068C16CDFF8402512685118DFF8A7
:100660003C251268891AC164DFF82C050068DFF8A0
:100670002C15086015480068B0FA80F0D0F11F0012
:1006800004001348142101FB04000068002802D173
:1006900000F0BBFAFEE70E49142202FB0411080029
:1006A000416849684160416810F10802914202D1F5
:1006B0004168496841604068C0680649086010BDEB
:1006C000905600209C560020AC56002098560020E2
:1006D00000550020805600201856002010B5040058
:1006E00000F06BF8DFF8BC0400680228F8D300F0D3
:1006F00015FBF5E7945600202DE9F04104000D00AC
:1007000016001F0000208046B8F1100F0CD218F818
:10071000050018EB040181F8340018F805000028E2
:1007200002D018F10108EFE7002084F84300052EFD
:1007300001D304200600E662201D0021016114F1AE
:100740001800002101612461D6F10500A0616462F6
:100750000020E06400202065002084F85400BDE8FB
:10076000F08110B500200400052C08D2DFF8340415
:10077000142101FB040000F02FFB641CF4E7DFF8F8
:10078000280400F029FBDFF8240400F025FBDFF843
:10079000E40300F021FBDFF8180400F01DFB3448EF
:1007A00000F01AFBDFF80004DFF8D8130860DFF868
:1007B000FC03DFF8D413086010BD38B5DFF8F4038C
:1007C000006800282BD0FFF7C5FDDFF8E4030068C0
:1007D000002801D1012400E00024FFF7C3FD002C14
:1007E000ECD100F0A4FADFF8C803C068C0680500C7
:1007F000281D00F029FBDFF8C0030068401EDFF869
:10080000B8130860DFF8AC030068401EDFF8A413DB
:10081000086000F0A4FA280000F0BEF8CEE731BD71
:1008200010B50400DFF8940300684460DFF870033B
:100830000068844209D2DFF884030068011DDFF8F4
:100840004803006800F0E3FA0EE0DFF87003006888
:10085000011DDFF83003006800F0D9FAC6480068CF
:10086000844201D2C448046010BD0000B456002088
:100870002C5600202DE9F84304000D00002D04D172
:10088000A4B2A00000F0F4FA00E028000700002F56
:100890000BD0582000F0ECFA0600002E01D0376390
:1008A00005E0380000F061FB01E000200600002EAA
:1008B0000AD0A4B2A7005FF0A508D6F8309042464F
:1008C0003900484600F0FAFB3000BDE8F2832DE91C
:1008D000F84304000D0016005FF0000928680028A6
:1008E0004CD02800416849684160416810F1080215
:1008F000914202D14168496841604068C0688046C1
:100900002800416849684160416810F1080291423D
:1009100002D14168496841604068C06807005FEAE9
:100920004910075117F1340014EB49114860786CF5
:1009300014EB4911886014EB49100673F86A14EB44
:1009400049110861F6B2032E06D1B86A002803D017
:10095000022014EB49110873002014EB491148617F
:10096000F86C14EB49118861386B00F00AF814EB4D
:100970004911888319F101094745C1D14846BDE8AD
:10098000F283010000200A78A52A02D1491C401CEC
:10099000F9E7800880B2704710B50400206B00F0C2
:1009A000E4FA200000F0E1FA10BDDFF8D811096880
:1009B0000968002904D15FF0FF316F4A116007E038
:1009C00070490968C968C968080041686A4A1160C5
:1009D000704770B504000D002900200000F0A6FB50
:1009E000200000F0C5FB06000F2E03D2202030555A
:1009F000761CF9E700203055301970BD7FB5040032
:100A000000202070DFF8B00100680390DFF8A80133
:100A10000068400100F02CFA0500002D4ED00022A5
:100A200003992800FFF712FD03900020029002981E
:100A3000039988423FD2029815EB4010007B0128B1
:100A400006D011D3032809D005D3042809D00BE020
:100A5000522006000AE04220060007E0532006006C
:100A600004E04420060001E000200600029815EB97
:100A7000401041682000FFF7ACFF04000298029983
:100A800015EB40108068019015EB4110808B0090B1
:100A9000029815EB40100369F6B23200DFF820111E
:100AA000200000F081FB200000F062FB0419029896
:100AB000401C0290BBE7280000F057FA7FBD70B5DC
:100AC00084B0040000202070DFF8EC000068029081
:100AD000DFF8E4000068400100F0CAF90500002DCD
:100AE00044D001AA02992800FFF7B0FC02900198B7
:100AF0006421B0FBF1F001900198002833D0002070
:100B000000900098029988422DD2009815EB401071
:100B100080690199B0FBF1F00600009815EB4010D8
:100B200041682000FFF755FF0400002E0AD0330073
:100B3000009815EB40108269DFF88810200000F063
:100B400033FB08E0009815EB40108269DFF878105D
:100B5000200000F029FB200000F00AFB0419009897
:100B6000401C0090CDE7280000F0FFF97FBD000099
:100B7000B02A000804560020B0560020A0560020DD
:100B80007C5600208456002088560020A456002061
:100B9000A85600207C560020BC560020B8560020E5
:100BA0009456002000550020DC550020F055002010
:100BB000185600208C5600209056002080560020A9
:100BC000342A0008842A0008902A0008EFF30980DC
:100BD000BFF36F8F204B1A6820E9F00F106008B543
:100BE0004FF0100080F31188FFF715FD4FF0000063
:100BF00080F31188BDE8084019680868B0E8F00F74
:100C000080F30988BFF36F8F7047EFF311804FF0C7
:100C1000100181F31188704780F3118870470E4BE3
:100C200019680868B0E8F00F80F30988BFF36F8F88
:100C30004FF0000080F311884EF00D0E704707480A
:100C40000068006880F3088862B661B6BFF34F8F12
:100C5000BFF36F8F00DF00008056002008ED00E03A
:100C6000001F5FF080730360001F0160001F0FF220
:100C70000D030360143802602038704780B54D487A
:100C8000006810F1010F02D0FFF7BFFFFEE7FFF78A
:100C9000BCFFFEE700B583B0474801780191FF2112
:100CA000017001788DF800109DF8001011F010010E
:100CB000424A11700721424A11609DF8001009064E
:100CC0000AD53F490968491E3D4A11609DF8001048
:100CD00049008DF80010F0E7394909680902384ADF
:100CE00011603749096811F4E061354A11600199D2
:100CF00001703448006850F470003249086031488F
:100D0000006850F070402F49086000F04CF8002057
:100D100028490860FFF793FF00200EBD5FF0805068
:100D200029490860BFF34F8FBFF36F8F704780B5BD
:100D3000FFF76BFF1F480068401C1E490860BFF3A7
:100D40004F8FBFF36F8F1B480068012806D11E48E4
:100D50000068000602D0FFF758FFFEE701BD80B52E
:100D600014480068002802D1FFF74FFFFEE7114842
:100D70000068401E0F4908600E480068002802D134
:100D8000002080F3118801BD80B5FFF73EFFFFF71B
:100D9000AEFB002803D05FF080500B4908600020B4
:100DA00080F3118801BD09480949086007200949F5
:100DB000086070470000002000E400E0C0560020FA
:100DC0007856002020ED00E004ED00E03F1901001E
:100DD00014E000E010E000E010F1080141605FF075
:100DE000FF31816010F10801C16010F1080101615B
:100DF00000210160704742684A6093688B60936885
:100E000059609160086103685B1C0360704710B40F
:100E10000B6813F1010F02D10469220008E010F100
:100E20000804220054682468A34201D35268F9E7F9
:100E300054684C604C68A1608A6051600861046825
:100E4000641C046010BC7047010008698A684B6824
:100E50009A604A688B685A6042688A4201D18A68FF
:100E6000426000220A610268521E026000687047F8
:100E70002DE9F04104005FF00008FFF76BFA8848A5
:100E80000068002801D100F0A2F8864800680442FA
:100E90005FD1002C10D084480068041914F0070FAB
:100EA0000AD014F1080014F00701441A14F0070FD7
:100EB00002D0FFF7AAFEFEE7002C4AD07B4800686C
:100EC000A04246D37A480600794800680500686861
:100ED000A04205D22868002802D02E002D68F6E72F
:100EE0006F480068854234D030686F490968081837
:100EF0008046286830606C48006840006968091BBB
:100F000088420FD26019070017F00700002802D0AE
:100F1000FFF77BFEFEE76868001B78606C603800B6
:100F200000F08CF8614800686968401A5F49086001
:100F30005E4800685F490968884203D25B480068E0
:100F40005C49086068685749096808436860002080
:100F50002860FFF707FA18F00700002802D0FFF713
:100F600054FEFEE74046BDE8F08170B5040026005F
:100F7000002C2BD04C480068361A35006868494967
:100F80000968084202D1FFF740FEFEE72868002802
:100F900002D0FFF73AFEFEE7686842490968084256
:100FA00014D02868002811D168683E490968884330
:100FB0006860FFF7CFF93D480068696808183B4949
:100FC0000860280000F03AF8FFF7CCF970BD30B4A3
:100FD0004FF48843384C220012F0070F05D0D21D81
:100FE000D208D2009B1A344CE3181100304C216017
:100FF00000242F4D6C605C1822002B4C2468121BBF
:10100000D208D200264C22600024254D2D686C6049
:101010000024234D2D682C600800141A4460204CD5
:10102000246804604468234D2C6044681F4D2C6084
:101030005FF000441B4D2C6030BC704710B41C4B5B
:101040001A001368834201D21268FAE7110053684C
:101050005B18834204D153684468E318536010005E
:10106000010043685B181468A34211D113680C4C4B
:101070002468A34208D0436814686468E318436096
:1010800013681B68036005E0054B1B68036001E003
:1010900013680360824200D0106010BC70470000EB
:1010A0005856002064560020B82A00085C560020DC
:1010B00050560020605600206008002062F30F2286
:1010C00062F31F42401810F0030308D0C91A1FD35F
:1010D000DB0748BF00F8012D28BF20F8022D1300C0
:1010E00030B414461546103928BF20E93C00FAD820
:1010F000490728BF20E90C0048BF40F8042D8900AB
:1011000028BF20F8022D48BF00F8012D30BC7047E1
:10111000C91818BF00F8012DCB0728BF00F8012D12
:1011200070470268531C0360117070475FEA000C3F
:10113000830706D011F8013B00F8013BB3B18307E8
:10114000F8D10A68B2F1013323EA020313F0803FB9
:1011500002BF40F8042B51F8042FF3E711F8013BCC
:1011600000F8013B13B111F8013BF9E76046704705
:1011700000F10103810704D010F8011B89B1810738
:10118000FAD10268B2F10131914311F0803F04BFFE
:1011900050F8042FF6E710F8011B11B110F8011BED
:1011A000FBE7C01A704700000CB41CB5044604A845
:1011B00001900A46009401AB69460748784418300C
:1011C00000F018F8009A0021117000285CBF009808
:1011D000001B16BC5DF80CFB4BFFFFFF70B504460F
:1011E0001E000846154604D015F8011BA047761EC0
:1011F000FAD170BD2DE9F04784B082468946144685
:101200001F46E84607E00123224649465046FFF7BD
:10121000E5FF8146641C207810B904B0BDE8F08772
:101220002528F0D16078A41C2528014618D058281C
:101230005CD063280ED0642818BF692814D06F28AA
:1012400054D0702858D073285DD0752818BF7828DE
:101250004CD0E0E73868386050F8041B3860C9B2F9
:101260004846D0478146D6E73868386050F8045B76
:101270003860002D03D52D214846D0478146642093
:101280006F2808BF082205D040F02001782914BF3C
:101290000A2210220B216428AC4603D1002D48BF3E
:1012A000CCF1000CBCFBF2F502FB15CC0CF13006C6
:1012B0005FFA86FC4B1EBCF13A0FA4BFA0F15106A9
:1012C000B44403F808C019465FEA050C01D00129AF
:1012D000E8DA68460D184846D1F10B09C2D015F876
:1012E000011BD047B9F10109F9D1BBE73968396071
:1012F00051F8045B3960C3E73868386050F8045B24
:1013000038607820BCE73868386050F8045B386093
:101310002846FFF72DFF06004846A3D015F8011B0D
:10132000D047761EFAD19DE7DFF8D003006880042D
:101330000BD4DFF8CC030068C00706D4DFF8C40381
:101340000068C00501D5012000E000207047DFF8EB
:10135000AC03006880040BD5DFF8A4030068C00765
:1013600006D5DFF8A0030068C00501D5012000E024
:1013700000207047DFF88403006880040BD5DFF895
:1013800080030068C00706D4DFF878030068C00552
:1013900001D4012000E000207047DFF860030068FE
:1013A00080040BD4DFF858030068C00706D5DFF8C7
:1013B00054030068C00501D5012000E000207047FB
:1013C000DFF83803006880040BD5DFF834030068C9
:1013D000C00706D5DFF82C030068C00501D4012042
:1013E00000E000207047DFF81C030068000401D40F
:1013F000012000E000207047DFF80C0300680007C0
:1014000001D4012000E000207047DFF8F8020068F6
:10141000400401D4012000E000207047DFF8E4021E
:101420000068800401D4012000E000207047DFF84C
:10143000D4020068000601D4012000E000207047BB
:1014400080B500F07DF800F031F801BDDFF8BC1286
:10145000DFF8B822D27A5054DFF8B012C97A491CAA
:10146000AA4AD172A949C97A0A2902DB0021A74AEE
:10147000D1727047A548807AA44AD27A904201D1AD
:10148000002012E0A148A14A927A105C01009F4816
:10149000807A401C9D4A90729C48807A0A2802DB20
:1014A00000209A4A90720800C0B2704780B50121AE
:1014B0004FF49A7000F0C6F903208DF80200042062
:1014C0008DF803004FF40050ADF8000069469148D4
:1014D00000F0E4F90120ADF8000069468E4800F004
:1014E000DDF94FF48070ADF8000069468B4800F0DC
:1014F000D5F94FF40040ADF800006946874800F088
:10150000CDF90820ADF800006946854800F0C6F91D
:101510004FF48040ADF800006946804800F0BEF905
:101520004FF40050ADF8000069467C4800F0B6F971
:101530008020ADF800006946784800F0AFF901BDA1
:101540000021724A91720021704AD17200216F4AC3
:10155000117300210800C0B20A281FDA64216C4A06
:10156000C0B212EB001211810221694AC0B212EB23
:10157000001211710021664AC0B212EB0012917282
:101580000021634AC0B212EB0012D1720021604AFE
:10159000C0B212EB00121173401CDCE764215C4AFC
:1015A000118705215A4A82F83B106421584AA2F853
:1015B00048100521564A82F84B106421544AA2F87B
:1015C00058100521524A82F85B106421504AA2F853
:1015D000681005214E4A82F86B1052494C4A11603E
:1015E00051494B4A11615149494A11625049484A8F
:1015F00011635049464A11644F49454A11654F49A4
:10160000434A11664E49424A11674E49404AC2F860
:1016100080104D493E4AC2F89010704738B504001A
:101620003B48E4B210EB041005002868804700280E
:1016300045D02879052802DA052028715DE028794F
:101640000A2803DA2879401C287156E0A87A002875
:1016500009D10120A872E4B2032000FB04F0401C71
:10166000C0B2FFF7F3FE2889002846D0E888298910
:1016700088420FD2E888401CE880E888298988429F
:101680003BD1E4B2032000FB04F0C01CC0B2FFF762
:10169000DDFE32E0E87A00282FD0287B401C28733A
:1016A000287BE97A884228D300202873E4B20320FB
:1016B00000FB04F0401CC0B2FFF7C8FE1DE0287913
:1016C000062802DB0520287113E02879002803D0C2
:1016D0002879401E28710CE0A87A012809D1002041
:1016E000A872E4B2032000FB04F0801CC0B2FFF734
:1016F000ADFE0020E8800020287331BD08100140B5
:10170000080801400820014008140140405600200C
:1017100060540020001001400008014000200140FA
:1017200000140140291300084F1300087513000826
:10173000E7130008F91300080B1400081D14000833
:101740002F1400089B130008C113000810B50020D7
:101750000400E4B20A2C05DA2000C0B2FFF75EFFF5
:10176000641CF6E710BD000030B400210022002305
:101770000024434D2D6815F00C0529000D00002DA7
:1017800004D0042D05D0082D06D026E03D4D05607F
:1017900025E03C4D056022E0394D2D6815F47015AB
:1017A0002A00374D2D6815F480352B00920C921CC1
:1017B000002B04D1344D05FB02F505600CE0304DE3
:1017C0002D68AD0304D5304D05FB02F5056003E03F
:1017D0002C4D05FB02F5056001E02A4D0560284D02
:1017E0002D6815F0F00529000909284D4D5D2C00E4
:1017F0000568E5404560224D2D6815F4E065290037
:10180000090A224D4D5D2C004568E54085601C4D60
:101810002D6815F460552900C90A1C4D4D5D2C003A
:101820004568E540C560164D2D6815F44045290012
:10183000890B174D4D5D2C00C568B5FBF4F50561AE
:1018400030BC7047C9B2002905D0124A1268024361
:10185000104B1A6004E00F4A126882430D4B1A6065
:101860007047C9B2002905D00B4A126802430A4BDF
:101870001A6004E0084A12688243074B1A607047F6
:101880000410024000127A0000093D00040000200C
:1018900014000020181002401C100240F0B5002770
:1018A0000022002300240025002691F803C01CF02C
:1018B0000F0C674691F803C05FEACC6C03D591F832
:1018C00002C05CEA070791F800C05FEA0C6C3AD0EE
:1018D000D0F800C065465FF0000C6346082B31D29B
:1018E0005FF0010C1CFA03FC6446B1F800C014EA76
:1018F0000C0C6246A24223D15FEA830C64465FF07F
:101900000F0C1CFA04FC6646B54317FA04FC5CEAAB
:10191000050591F803C0BCF1280F06D15FF0010C5A
:101920001CFA03FCC0F814C00AE091F803C0BCF133
:10193000480F05D15FF0010C1CFA03FCC0F810C081
:101940005B1CCBE70560B1F800C0BCF1FF0F3FDDC9
:10195000D0F804C065465FF0000C6346082B36D211
:101960005FF0010C13F1080E1CFA0EFC6446B1F88E
:1019700000C014EA0C0C6246A24226D15FEA830C36
:1019800064465FF00F0C1CFA04FC6646B54317FA78
:1019900004FC5CEA050591F803C0BCF1280F07D1EF
:1019A0005FF0010C13F1080E1CFA0EFCC0F814C015
:1019B00091F803C0BCF1480F07D15FF0010C13F19F
:1019C000080E1CFA0EFCC0F810C05B1CC6E7456090
:1019D000F0BD000080B500F057F800F082F800F08C
:1019E00040F800F0C8F801BD0100C9B2002902D1D9
:1019F000DFF8180314E0C9B2012901D100200FE07B
:101A0000C9B2022901D100200AE0C9B2032901D1DB
:101A1000002005E0C9B2042901D1002000E0002027
:101A20007047F8B504000D0016002000C0B2FFF7A3
:101A3000DBFF0700002F0AD0F869002801D0F86901
:101A40008047320092B22900380000F0A5F8F1BDBD
:101A500013B50400012201A92000C0B2FFF7E1FF85
:101A600013BD80B501210820FFF7ECFE03208DF89F
:101A7000020010208DF803000420ADF80000694634
:101A8000A348FFF70BFF01BDA248A0490860A24888
:101A90009E494860A1489D4988604FF480609B49F9
:101AA00088814FF480609949C88100209749088255
:101AB00000209649488200209449C882002093491A
:101AC00008830020914948830020904988820020A3
:101AD0008E49C86100208D49086200208B49486208
:101AE000704700B585B001210520FFF7ABFE01214D
:101AF0004FF48040FFF7A6FE4FF40070ADF80000F1
:101B000018208DF8030003208DF8020069468448F0
:101B1000FFF7C4FE4FF48060ADF8000004208DF89C
:101B2000030069467E48FFF7B9FE5FF4E13001909B
:101B30000020ADF808000020ADF80A000020ADF844
:101B40000C000020ADF810000C20ADF80E0001A92B
:101B5000704800F0F3F8012240F225516D4800F082
:101B60006DF901216B4800F05BF94021694800F0F4
:101B700098F905B000BD80B525208DF80000012042
:101B80008DF8010000208DF8020001208DF803007F
:101B9000684600F0CAF901BDF8B504000D00160052
:101BA00000200700BFB2B6B2B74226D2012080F3B0
:101BB0001088A08AADF80000002080F31088BDF8DE
:101BC0000000A1898842F1D2BFB2785D6168228AA3
:101BD0005054012080F31088208A401C2082A18963
:101BE00080B2884201D300202082A08A401CA082BB
:101BF000002080F310887F1CD4E7012240F2277177
:101C0000206800F01BF9F1BD38B5040040F2255101
:101C1000206800F04CF900281DD0206800F03DF944
:101C20000500A068E18A0D54E08A401CE082E18949
:101C300080B2884201D30020E082608BE189884233
:101C400002D2608B401C6083606A002803D02800A9
:101C5000C0B2616A884740F22771206800F027F916
:101C6000002823D0A08A00280CD1002240F227713E
:101C7000206800F0E3F8012240F22661206800F0BD
:101C8000DDF83CE06068618A095C89B2206800F098
:101C900000F9608A401C6082A18980B2884201D329
:101CA00000206082A08A401EA08228E040F22661C7
:101CB000206800F0FCF8002821D0A08A00280BD171
:101CC000002240F22661206800F0B8F8206A00285F
:101CD00015D0206A804712E06068618A095C89B289
:101CE000206800F0D6F8608A401C6082A18980B22A
:101CF000884201D300206082A08A401EA08231BDAC
:101D000080B50248FFF780FF01BD0000B4550020F8
:101D1000000C014000380140604C00206050002061
:101D20000008014038B504000D0020000100C9B2D0
:101D30000020FFF78DFE200032BD00002DE9F047A6
:101D400086B004000D00002600275FF000085FF059
:101D500000095FF0000AA8890028A246208A060030
:101D60004CF6FF700640E88806432682A0890600EC
:101D70004EF6F3100640A88829890843698908436C
:101D80000643A681A08A06004FF6FF400640A889B8
:101D90000643A6826846FFF7E7FC2048824502D149
:101DA0000398070001E002980700A089000408D505
:101DB000192000FB07F029684900B0FBF1F08046CC
:101DC00007E0192000FB07F029688900B0FBF1F05B
:101DD00080466420B8FBF0F0000106003009642161
:101DE00001FB10808146A089000409D55FEAC90083
:101DF00032306421B0FBF1F010F00700064308E038
:101E00005FEA091032306421B0FBF1F010F00F00EE
:101E10000643268106B0BDE8F08700000038014087
:101E2000C9B2002904D0828952F40052828104E0B0
:101E300082894DF6FF731A4082817047F0B4002307
:101E400000240025002689B240F66A17B942060030
:101E50000F00FFB27F09FFB23B0089B211F01F07EC
:101E60003C000127A7403D00012B01D10C3604E0C6
:101E7000022B01D1103600E01436D2B2002A03D072
:101E800037682F43376002E03768AF433760F0BCF4
:101E90007047CA05D20D828070478088C005C00D8A
:101EA000704789B28A0589B2CA430280704770B40C
:101EB0000300002400260025002089B240F66A12A3
:101EC00091420A00D2B25209D2B2150089B211F081
:101ED0001F021600012212FA06F6012D02D19A897C
:101EE000164006E0022D02D11A8A164001E09A8AB5
:101EF00016400A0092B2120A92B21400012212FA9B
:101F000004F41A881440002E04D0002C02D00122C0
:101F1000100001E000221000C0B270BC7047000049
:101F20001C4901431C4A1160704770B40023002112
:101F30000F22C478002C20D0174C246814F4E064DD
:101F4000D4F5E064240A2300D3F104042100DA402C
:101F500044788C4023008478144023431B010F4CA9
:101F600005782B550124057815F01F05AC400C4D64
:101F70000678761145F8264009E00124057815F029
:101F80001F05AC40074D0678761145F8264070BC19
:101F9000704700000000FA050CED00E000E400E0EE
:101FA00000E100E080E100E001000020DFF8B42261
:101FB000914203D14FF4006210005DE0DFF8A822E7
:101FC000914203D14FF40052100055E0DFF89C22FB
:101FD000914203D15FF4002210004DE0DFF890221F
:101FE000914203D15FF48012100045E0DFF88422B3
:101FF000914203D15FF4001210003DE0B1F1804F37
:1020000002D10122100037E0DFF86C22914202D1A8
:102010000222100030E0DFF86422914202D1042253
:10202000100029E0DFF85822914202D10822100066
:1020300022E0DFF85022914202D1102210001BE072
:10204000DFF84422914202D12022100014E0DFF890
:102050003C22914202D1402210000DE0DFF83022F4
:10206000914202D18022100006E0DFF8282291423E
:1020700002D14FF48072100070472DE9F04F85B007
:1020800004000D0016001F007648844202D07648F6
:10209000844206D12000FFF787FF0121FFF7D2FB22
:1020A00005E02000FFF780FF0121FFF7DAFB002D9C
:1020B00041D10021200000F03BF95FF0000B69489E
:1020C000844202D11920834628E0B4F1804F02D126
:1020D0001C20834622E06848844202D11D208346AA
:1020E0001CE06648844202D11E20834616E0644804
:1020F000844202D13220834610E06248844202D1F9
:10210000362083460AE06048844202D13720834665
:1021100004E05548844201D12C2083468DF804B058
:102120008DF805608DF8067000208DF8070001A875
:10213000FFF7FBFE92E04B4884420BD04A488442B2
:1021400008D04A48844205D04948844202D04948D0
:10215000844203D150480068824602E04E4800683D
:102160008246642D0BD242F20F70814642F210700B
:10217000BAFBF0F0B0FBF5F0401E804613E040F6ED
:10218000B830854209D2632081466420BAFBF0F062
:10219000B0FBF5F0401E804605E000208146BAFB0A
:1021A000F5F0401E8046ADF80C80ADF80890002098
:1021B000ADF80E000020ADF80A0000208DF81000E8
:1021C00002A9200000F06AF80121200000F0C9F8FF
:1021D00001220121200000F0B9F80121200000F0C7
:1021E000A7F85FF0000B1F48844202D119208346F4
:1021F00028E0B4F1804F02D11C20834622E01E4823
:10220000844202D11D2083461CE01C48844202D136
:102210001E20834616E01A48844202D132208346AB
:1022200010E01848844202D1362083460AE016485E
:10223000844202D13720834604E00B48844201D116
:102240002C2083468DF800B08DF801608DF8027067
:1022500001208DF803006846FFF767FE05B0BDE872
:10226000F08F0000002C014000340140004C014080
:1022700000500140005401400004004000080040AC
:10228000000C004000100040001400400018004006
:10229000001C00400020004018000020002203889D
:1022A0001A00DFF81431984212D0DFF82431984236
:1022B0000ED0B0F1804F0BD0DFF80031984207D03C
:1022C000DFF8FC30984203D0DFF8F830984204D1B0
:1022D0004FF68F731A404B881A43DFF8EC30984260
:1022E00008D0DFF8E830984204D04FF6FF431A4098
:1022F000CB881A4302808B8883850B880385DFF89F
:10230000B83098420FD0DFF8C83098420BD0DFF8D1
:10231000C430984207D0DFF8C030984203D0DFF8CD
:10232000BC30984201D10B7A038601238382704727
:10233000C9B2002904D0028852F00102028004E0F0
:1023400002884FF6FE731A4002807047D2B2002A0C
:1023500003D083890B43838102E083898B4383818C
:102360007047C9B2002904D0028852F0800202806E
:1023700004E002884FF67F731A400280704730B441
:102380000200002000230024158A0D402B009589AF
:102390000D402C009BB2002B05D0A4B2002C02D023
:1023A0000125280001E000252800C0B230BC70479C
:1023B00089B2CA4302827047002C014000040040E9
:1023C00000080040000C00400010004000140040D5
:1023D00000340140004001400044014000480140F9
:1023E00080B5012080F3108800F0AAF800F0B4F85E
:1023F00000F046F8FDF77EFFFEE730B5FDB00400C3
:10240000FFF738F80500EDB2002D1AD0EDB2012D1E
:1024100017D13B4800F0BEF83A4800F0BBF86846D8
:10242000FEF7ECFA6946384800F0B4F8374800F097
:10243000B1F86846FEF743FB6946334800F0AAF856
:10244000FFE71420FDF720FFDAE710B504000220B3
:1024500000F009F9C820FDF717FFF8E710B50400F0
:10246000032000F000F94FF49670FDF70DFFF7E739
:1024700010B50400FFF76AF90A20FDF705FFF9E738
:1024800000B585B000200390002002902048019004
:102490000120009000234FF400721E491E48FDF7F2
:1024A00047FE00200390002002901C48019002206B
:1024B000009000234FF4007219491A48FDF738FEC6
:1024C0000020039000200290174801900320009004
:1024D00000234FF4007215491548FDF729FE00202E
:1024E00003900020029013480190042000900023E4
:1024F0004FF4007210491148FDF71AFE05B000BDF7
:10250000CC28000800290008A82A00083029000863
:1025100068560020542A0008FB2300086C5600204F
:10252000602A00084B240008705600206C2A00081E
:102530005D24000874560020782A000871240008E1
:1025400080B54FF44070FFF7EBFCFFF743FA00F063
:1025500033F8FEF775FF01BD80B50023012244F674
:1025600020610A48FFF789FD01BD80B501210748B8
:10257000FFF705FF002808D005480068401C044903
:10258000086001210148FFF713FF01BD0010004062
:102590007C5600200EB400B582B003A9009102461B
:1025A0006B460121034878440A30FEF723FE06BC3F
:1025B0005DF810FB5D04000080B501218020FFF76D
:1025C00041F9012000F02FF8022000F02CF8032040
:1025D00000F029F8042000F026F803208DF802000E
:1025E00010208DF803004FF40060ADF8000069463C
:1025F0003148FFF753F98020ADF8000069462E48B6
:10260000FFF74CF94FF48070ADF8000069462A4896
:10261000FFF744F94FF40070ADF800006946264812
:10262000FFF73CF901BD401EC0B2002804D14FF4B1
:102630000061224A116015E0C0B2012803D1802157
:102640001E4A11600EE0C0B2022804D14FF480711E
:102650001A4A116006E0C0B2032803D14FF400719A
:10266000164A11607047C0B2012806D114490968A2
:1026700091F40061124A11601CE0C0B2022806D138
:102680000F49096891F080010D4A116012E0C0B253
:10269000032806D10A49096891F48071084A11603B
:1026A00008E0C0B2042805D10549096891F4007119
:1026B000034A116070470000001C0140101C0140DB
:1026C0000C1C014080B54E48006850F001004C4998
:1026D00008604C4800684C4908404A49086048482E
:1026E00000684A490840464908604548006830F497
:1026F0008020434908604348006830F4FE004149A7
:1027000008605FF41F004249086000F005F85FF0C0
:1027100000604049086001BD80B500F001F801BDCE
:1027200082B000200190002000903548006850F4ED
:102730008030334908603248006810F4003000905F
:102740000198401C01900098002803D10198B0F531
:10275000A06FF0D12A480068800302D501200090C4
:1027600001E0002000900098012847D12A48006825
:1027700050F0100028490860274800688008800051
:10278000254908602448006850F00200224908608A
:102790001C4800681B4908601A480068194908600D
:1027A0001848006850F480601649086015480068B1
:1027B00030F47C10134908601248006850F4E810A7
:1027C000104908600E48006850F080700C4908609D
:1027D0000B4800688001FBD50A480068800880002B
:1027E000084908600748006850F002000549086081
:1027F0000448006810F00C000828F9D102B07047B6
:1028000000100240041002400000FFF8FFFFF6FE37
:102810000810024008ED00E00020024019E050F8E6
:10282000041BCB0744BFA9F101035918121F002351
:10283000042A41F8043BF9D25FEA827C0B4604D5B6
:102840004FF0000CA1F800C09B1CD10744BF002131
:10285000197050F8042B002AE1D1704770470848DE
:1028600000221100C9B22A2909D2C9B20A5C054B5B
:102870001A80054A12885206FBD5491CF2E7FEE78A
:102880005C2900080438014000380140FEE7FEE7FB
:10289000FEE7704730B5016842688468091801EBAB
:1028A0005203D20748BF4C440C30994200D130BD8E
:1028B00011F9012B11F8015B002A04F8015B02D524
:1028C000521CF9D1F1E7521EF4D5EEE73D3D3D3DF6
:1028D0003D3D3D3D3D3D3D3D3D3D3D3D3D3D3D3D28
:1028E0003D3D3D3D3D3D3D3D3D3D3D3D3D3D3D3D18
:1028F0003D3D3D3D3D3D3D3D3D3D3D3D3D0D0A00A8
:10290000C8CECEF1C3FB202020202020C8CECEF19F
:10291000D7B4CCAC20D3C5CFC8BCB6202020CAA326
:10292000D3E0D5BB20C8CECEF1D0F2BAC50D0A0097
:102930000D0AC8CECEF1C3FB20202020202020D4B9
:10294000CBD0D0BCC6CAFD202020202020202020B3
:10295000CAB9D3C3C2CA0D0A000000000D0A456EF1
:1029600074657220486172644661756C745F486179
:102970006E646C65722C2053797374656D204861A8
:102980006C742E0D0A00000010B507497944183107
:10299000064C7C44163404E00A68081D5118884728
:1029A0000146A142F8D110BD08000000240000003B
:1029B0006DFEFFFF644E0000600800200000000074
:1029C000D5FEFFFFE00100007600000000000020BF
:1029D0000120C046002801D0FFF7D6FF0020C046E6
:1029E000C046FFF7FDFC00F000F800F001B8000061
:1029F0000746384600F002F8FBE7000080B5C04605
:102A0000C046024A11001820ABBEFBE726000200B8
:102A100038B504460D46284600F006F8A84218BF0F
:102A20000024204632BD00000149FFF77BB900BFFA
:102A30001C000020092563092575092575092575E0
:102A40000D0A00000148804701480047C5260008DC
:102A50009D2A0008765461736B5573657249460070
:102A6000765461736B4C45440000000076546173EA
:102A70006B4D736750726F00765461736B53746162
:102A8000727400000925750909257525250D0A00B0
:102A900009257509093C3125250D0A00C046C046A7
:102AA000C046C046FFF794FF25730D0A00000000E2
:102AB00049444C450000000008000000FFF7FEBF3D
:102AC000FFF7FEBFFFF7FEBFFFF7FEBFFFF7FEBF3A
:102AD000FFF7FEBFFFF7FEBFFFF7FEBFFFF7FEBF2A
:102AE000FFF7FEBFFFF7FEBFFFF7FEBFFFF7FEBF1A
:102AF000FFF7FEBFFFF7FEBFFFF7FEBFFFF7FEBF0A
:102B0000FFF7FEBFFFF7FEBFFFF7FEBFFFF7FEBFF9
:102B1000FFF7FEBFFFF7FEBFFFF7FEBFFFF7FEBFE9
:102B2000FFF7FEBFFFF7FEBFFFF7FEBFFFF7FEBFD9
:102B3000FFF7FEBFFFF7FEBFFFF7FEBFFFF7FEBFC9
:102B4000FFF7FEBFFFF7FEBFFFF7FEBFFFF7FEBFB9
:102B5000FFF7FEBFFFF7FEBFFFF7FEBFFFF7FEBFA9
:102B6000FFF7FEBFFFF7FEBFFFF7FEBFFFF7FEBF99
:102B7000FFF7FEBFFFF7FEBFFFF7FEBFFFF7FEBF89
:102B8000FFF7FEBFFFF7FEBFFFF7FEBFFFF7FEBF79
:102B9000FFF7FEBFFFF7FEBFFFF7FEBFFFF7FEBF69
:102BA000FFF7FEBFFCAAFC0033010203040102038D
:102BB00004060708090204060800A24A04020401E8
:102BC0000164550020B45500206455002064550070
:0F2BD00020645500205900002040000020E00044
:0400000508002A9D28
:00000001FF
